{
  "_format": "hh-sol-artifact-1",
  "contractName": "SortedVaults",
  "sourceName": "contracts/onvault/SortedVaults.sol",
  "abi": [
    {
      "anonymous": false,
      "inputs": [
        {
          "indexed": false,
          "internalType": "address",
          "name": "_borrowerOperationsAddress",
          "type": "address"
        }
      ],
      "name": "BorrowerOperationsAddressChanged",
      "type": "event"
    },
    {
      "anonymous": false,
      "inputs": [
        {
          "indexed": false,
          "internalType": "address",
          "name": "_id",
          "type": "address"
        },
        {
          "indexed": false,
          "internalType": "uint256",
          "name": "_NICR",
          "type": "uint256"
        }
      ],
      "name": "NodeAdded",
      "type": "event"
    },
    {
      "anonymous": false,
      "inputs": [
        {
          "indexed": false,
          "internalType": "address",
          "name": "_id",
          "type": "address"
        }
      ],
      "name": "NodeRemoved",
      "type": "event"
    },
    {
      "anonymous": false,
      "inputs": [
        {
          "indexed": true,
          "internalType": "address",
          "name": "previousOwner",
          "type": "address"
        },
        {
          "indexed": true,
          "internalType": "address",
          "name": "newOwner",
          "type": "address"
        }
      ],
      "name": "OwnershipTransferred",
      "type": "event"
    },
    {
      "anonymous": false,
      "inputs": [
        {
          "indexed": false,
          "internalType": "address",
          "name": "_sortedDoublyLLAddress",
          "type": "address"
        }
      ],
      "name": "SortedVaultsAddressChanged",
      "type": "event"
    },
    {
      "anonymous": false,
      "inputs": [
        {
          "indexed": false,
          "internalType": "address",
          "name": "_vaultManagerAddress",
          "type": "address"
        }
      ],
      "name": "VaultManagerAddressChanged",
      "type": "event"
    },
    {
      "inputs": [],
      "name": "NAME",
      "outputs": [
        {
          "internalType": "string",
          "name": "",
          "type": "string"
        }
      ],
      "stateMutability": "view",
      "type": "function"
    },
    {
      "inputs": [],
      "name": "borrowerOperationsAddress",
      "outputs": [
        {
          "internalType": "address",
          "name": "",
          "type": "address"
        }
      ],
      "stateMutability": "view",
      "type": "function"
    },
    {
      "inputs": [
        {
          "internalType": "address",
          "name": "_id",
          "type": "address"
        }
      ],
      "name": "contains",
      "outputs": [
        {
          "internalType": "bool",
          "name": "",
          "type": "bool"
        }
      ],
      "stateMutability": "view",
      "type": "function"
    },
    {
      "inputs": [],
      "name": "data",
      "outputs": [
        {
          "internalType": "address",
          "name": "head",
          "type": "address"
        },
        {
          "internalType": "address",
          "name": "tail",
          "type": "address"
        },
        {
          "internalType": "uint256",
          "name": "maxSize",
          "type": "uint256"
        },
        {
          "internalType": "uint256",
          "name": "size",
          "type": "uint256"
        }
      ],
      "stateMutability": "view",
      "type": "function"
    },
    {
      "inputs": [
        {
          "internalType": "uint256",
          "name": "_NICR",
          "type": "uint256"
        },
        {
          "internalType": "address",
          "name": "_prevId",
          "type": "address"
        },
        {
          "internalType": "address",
          "name": "_nextId",
          "type": "address"
        }
      ],
      "name": "findInsertPosition",
      "outputs": [
        {
          "internalType": "address",
          "name": "",
          "type": "address"
        },
        {
          "internalType": "address",
          "name": "",
          "type": "address"
        }
      ],
      "stateMutability": "view",
      "type": "function"
    },
    {
      "inputs": [],
      "name": "getFirst",
      "outputs": [
        {
          "internalType": "address",
          "name": "",
          "type": "address"
        }
      ],
      "stateMutability": "view",
      "type": "function"
    },
    {
      "inputs": [],
      "name": "getLast",
      "outputs": [
        {
          "internalType": "address",
          "name": "",
          "type": "address"
        }
      ],
      "stateMutability": "view",
      "type": "function"
    },
    {
      "inputs": [],
      "name": "getMaxSize",
      "outputs": [
        {
          "internalType": "uint256",
          "name": "",
          "type": "uint256"
        }
      ],
      "stateMutability": "view",
      "type": "function"
    },
    {
      "inputs": [
        {
          "internalType": "address",
          "name": "_id",
          "type": "address"
        }
      ],
      "name": "getNext",
      "outputs": [
        {
          "internalType": "address",
          "name": "",
          "type": "address"
        }
      ],
      "stateMutability": "view",
      "type": "function"
    },
    {
      "inputs": [
        {
          "internalType": "address",
          "name": "_id",
          "type": "address"
        }
      ],
      "name": "getPrev",
      "outputs": [
        {
          "internalType": "address",
          "name": "",
          "type": "address"
        }
      ],
      "stateMutability": "view",
      "type": "function"
    },
    {
      "inputs": [],
      "name": "getSize",
      "outputs": [
        {
          "internalType": "uint256",
          "name": "",
          "type": "uint256"
        }
      ],
      "stateMutability": "view",
      "type": "function"
    },
    {
      "inputs": [
        {
          "internalType": "address",
          "name": "_id",
          "type": "address"
        },
        {
          "internalType": "uint256",
          "name": "_NICR",
          "type": "uint256"
        },
        {
          "internalType": "address",
          "name": "_prevId",
          "type": "address"
        },
        {
          "internalType": "address",
          "name": "_nextId",
          "type": "address"
        }
      ],
      "name": "insert",
      "outputs": [],
      "stateMutability": "nonpayable",
      "type": "function"
    },
    {
      "inputs": [],
      "name": "isEmpty",
      "outputs": [
        {
          "internalType": "bool",
          "name": "",
          "type": "bool"
        }
      ],
      "stateMutability": "view",
      "type": "function"
    },
    {
      "inputs": [],
      "name": "isFull",
      "outputs": [
        {
          "internalType": "bool",
          "name": "",
          "type": "bool"
        }
      ],
      "stateMutability": "view",
      "type": "function"
    },
    {
      "inputs": [],
      "name": "owner",
      "outputs": [
        {
          "internalType": "address",
          "name": "",
          "type": "address"
        }
      ],
      "stateMutability": "view",
      "type": "function"
    },
    {
      "inputs": [
        {
          "internalType": "address",
          "name": "_id",
          "type": "address"
        },
        {
          "internalType": "uint256",
          "name": "_newNICR",
          "type": "uint256"
        },
        {
          "internalType": "address",
          "name": "_prevId",
          "type": "address"
        },
        {
          "internalType": "address",
          "name": "_nextId",
          "type": "address"
        }
      ],
      "name": "reInsert",
      "outputs": [],
      "stateMutability": "nonpayable",
      "type": "function"
    },
    {
      "inputs": [
        {
          "internalType": "address",
          "name": "_id",
          "type": "address"
        }
      ],
      "name": "remove",
      "outputs": [],
      "stateMutability": "nonpayable",
      "type": "function"
    },
    {
      "inputs": [],
      "name": "renounceOwnership",
      "outputs": [],
      "stateMutability": "nonpayable",
      "type": "function"
    },
    {
      "inputs": [
        {
          "internalType": "uint256",
          "name": "_size",
          "type": "uint256"
        },
        {
          "internalType": "address",
          "name": "_vaultManagerAddress",
          "type": "address"
        },
        {
          "internalType": "address",
          "name": "_borrowerOperationsAddress",
          "type": "address"
        }
      ],
      "name": "setParams",
      "outputs": [],
      "stateMutability": "nonpayable",
      "type": "function"
    },
    {
      "inputs": [
        {
          "internalType": "address",
          "name": "newOwner",
          "type": "address"
        }
      ],
      "name": "transferOwnership",
      "outputs": [],
      "stateMutability": "nonpayable",
      "type": "function"
    },
    {
      "inputs": [
        {
          "internalType": "uint256",
          "name": "_NICR",
          "type": "uint256"
        },
        {
          "internalType": "address",
          "name": "_prevId",
          "type": "address"
        },
        {
          "internalType": "address",
          "name": "_nextId",
          "type": "address"
        }
      ],
      "name": "validInsertPosition",
      "outputs": [
        {
          "internalType": "bool",
          "name": "",
          "type": "bool"
        }
      ],
      "stateMutability": "view",
      "type": "function"
    },
    {
      "inputs": [],
      "name": "vaultManager",
      "outputs": [
        {
          "internalType": "contract IVaultManager",
          "name": "",
          "type": "address"
        }
      ],
      "stateMutability": "view",
      "type": "function"
    }
  ],
  "bytecode": "0x608060405234801561001057600080fd5b5061001a3361001f565b61006f565b600080546001600160a01b038381166001600160a01b0319831681178455604051919092169283917f8be0079c531659141344cd1fd0a4f28419497f9722a3daafe3b4186f6b6457e09190a35050565b61175b8061007e6000396000f3fe608060405234801561001057600080fd5b50600436106101225760003560e01c806373d4a13a116100a857806373d4a13a14610222578063765e01591461026f5780638a4adf24146102a05780638da5cb5b146102b3578063a3f4df7e146102bb578063b72703ac146102f3578063b7f8cf9b14610322578063babd3d9a14610335578063de8fa43114610341578063f2fde38b14610349578063f376d7981461035c57600080fd5b80631e2231431461012757806329092d0e1461014a5780632be212601461015f5780633fce12d514610172578063416980dc1461019557806346f7cf87146101c85780634d622831146101db5780635dbe47e8146101ec57806363e1d57c146101ff578063681fe70c14610211578063715018a61461021a575b600080fd5b6003546001600160a01b03165b60405161014191906115b7565b60405180910390f35b61015d6101583660046114fe565b61036f565b005b61015d61016d366004611518565b610383565b61018561018036600461157c565b610403565b6040519015158152602001610141565b6101a86101a336600461157c565b610426565b604080516001600160a01b03938416815292909116602083015201610141565b61015d6101d6366004611518565b610450565b6004546001600160a01b0316610134565b6101856101fa3660046114fe565b610465565b6005545b604051908152602001610141565b60065415610185565b61015d610483565b600354600454600554600654610244936001600160a01b039081169316919084565b604080516001600160a01b039586168152949093166020850152918301526060820152608001610141565b61013461027d3660046114fe565b6001600160a01b0390811660009081526007602052604090205461010090041690565b600254610134906001600160a01b031681565b6101346104be565b6102e66040518060400160405280600c81526020016b536f727465645661756c747360a01b81525081565b60405161014191906115cb565b6101346103013660046114fe565b6001600160a01b039081166000908152600760205260409020600101541690565b600154610134906001600160a01b031681565b60055460065414610185565b600654610203565b61015d6103573660046114fe565b6104cd565b61015d61036a36600461157c565b61056a565b6103776106a4565b61038081610713565b50565b6002546001600160a01b031661039881610918565b6103a185610465565b6103c65760405162461bcd60e51b81526004016103bd90611661565b60405180910390fd5b600084116103e65760405162461bcd60e51b81526004016103bd9061161e565b6103ef85610713565b6103fc818686868661099b565b5050505050565b60025460009061041e906001600160a01b0316858585610d10565b949350505050565b6002546000908190610443906001600160a01b0316868686610f79565b915091505b935093915050565b6002546001600160a01b03166103ef81610918565b6001600160a01b031660009081526007602052604090205460ff1690565b3361048c6104be565b6001600160a01b0316146104b25760405162461bcd60e51b81526004016103bd906116ab565b6104bc600061115a565b565b6000546001600160a01b031690565b336104d66104be565b6001600160a01b0316146104fc5760405162461bcd60e51b81526004016103bd906116ab565b6001600160a01b0381166105615760405162461bcd60e51b815260206004820152602660248201527f4f776e61626c653a206e6577206f776e657220697320746865207a65726f206160448201526564647265737360d01b60648201526084016103bd565b6103808161115a565b336105736104be565b6001600160a01b0316146105995760405162461bcd60e51b81526004016103bd906116ab565b600083116105e95760405162461bcd60e51b815260206004820181905260248201527f536f727465645661756c74733a2053697a652063616e2774206265207a65726f60448201526064016103bd565b6105f2826111aa565b6105fb816111aa565b6005839055600280546001600160a01b038085166001600160a01b03199283161790925560018054928416929091169190911790556040517fd396f45b3a6c41f9744b157261875945681f8e23587ae1d7d34377aad3bb1623906106609084906115b7565b60405180910390a17f3ca631ffcd2a9b5d9ae18543fc82f58eb4ca33af9e6ab01b7a8e95331e6ed9858160405161069791906115b7565b60405180910390a1505050565b6002546001600160a01b031633146104bc5760405162461bcd60e51b815260206004820152602c60248201527f536f727465645661756c74733a2043616c6c6572206973206e6f74207468652060448201526b2b30bab63a26b0b730b3b2b960a11b60648201526084016103bd565b61071c81610465565b6107385760405162461bcd60e51b81526004016103bd90611661565b60065460011015610878576003546001600160a01b03828116911614156107a5576001600160a01b0380821660009081526007602052604080822054600380546001600160a01b031990811661010090930490951691821790558252902060010180549091169055610895565b6004546001600160a01b0382811691161415610809576001600160a01b0380821660009081526007602052604080822060010154600480546001600160a01b03191691909416908117909355918152208054610100600160a81b0319169055610895565b6001600160a01b038082166000908152600760205260408082208054600180830180548716865284862080546101009485900489168502610100600160a81b03199091161790555492549190910485168452919092200180546001600160a01b03191691909216179055610895565b600380546001600160a01b03199081169091556004805490911690555b6001600160a01b038116600090815260076020526040902080546001600160a81b0319168155600190810180546001600160a01b03191690556006546108da91611253565b6006556040517fcfc24166db4bb677e857cacabd1541fb2b30645021b27c5130419589b84db52b9061090d9083906115b7565b60405180910390a150565b6001546001600160a01b03163314806109395750336001600160a01b038216145b6103805760405162461bcd60e51b815260206004820152602d60248201527f536f727465645661756c74733a2043616c6c6572206973206e6569746865722060448201526c424f206e6f72205661756c744d60981b60648201526084016103bd565b60055460065414156109ec5760405162461bcd60e51b815260206004820152601a60248201527914dbdc9d195915985d5b1d1cce88131a5cdd081a5cc8199d5b1b60321b60448201526064016103bd565b6109f584610465565b15610a575760405162461bcd60e51b815260206004820152602c60248201527f536f727465645661756c74733a204c69737420616c726561647920636f6e746160448201526b696e7320746865206e6f646560a01b60648201526084016103bd565b6001600160a01b038416610aad5760405162461bcd60e51b815260206004820152601f60248201527f536f727465645661756c74733a2049642063616e6e6f74206265207a65726f0060448201526064016103bd565b60008311610acd5760405162461bcd60e51b81526004016103bd9061161e565b8181610adb87868484610d10565b610af157610aeb87868484610f79565b90925090505b6001600160a01b038087166000908152600760205260409020805460ff191660011790558216158015610b2b57506001600160a01b038116155b15610b6057600380546001600160a01b0388166001600160a01b03199182168117909255600480549091169091179055610cb4565b6001600160a01b038216610bd457600380546001600160a01b03888116600081815260076020526040808220805495851661010002610100600160a81b0319909616959095179094558454909216825291902060010180546001600160a01b03199081168317909155825416179055610cb4565b6001600160a01b038116610c4457600480546001600160a01b0388811660008181526007602052604080822060010180549585166001600160a01b031996871617905585549093168152919091208054610100600160a81b03191661010083021790558254909116179055610cb4565b6001600160a01b038087166000818152600760205260408082208054858716610100818102610100600160a81b031993841617845560019384018054988b166001600160a01b0319998a168117909155865284862080549188029190931617909155835291200180549092161790555b600654610cc2906001611266565b600655604080516001600160a01b0388168152602081018790527fe02b43adbee0c123de070a04554a71877a0007e2fc161466299cae3c094fe82f910160405180910390a150505050505050565b60006001600160a01b038316158015610d3057506001600160a01b038216155b15610d4157600654155b905061041e565b6001600160a01b038316610ded576003546001600160a01b038381169116148015610d3a575060405163b0d8e18160e01b81526001600160a01b0386169063b0d8e18190610d939085906004016115b7565b60206040518083038186803b158015610dab57600080fd5b505afa158015610dbf573d6000803e3d6000fd5b505050506040513d601f19601f82011682018060405250810190610de39190611564565b841015905061041e565b6001600160a01b038216610e99576004546001600160a01b038481169116148015610d3a575060405163b0d8e18160e01b81526001600160a01b0386169063b0d8e18190610e3f9086906004016115b7565b60206040518083038186803b158015610e5757600080fd5b505afa158015610e6b573d6000803e3d6000fd5b505050506040513d601f19601f82011682018060405250810190610e8f9190611564565b841115905061041e565b6001600160a01b0383811660009081526007602052604090205461010090048116908316148015610f46575060405163b0d8e18160e01b815284906001600160a01b0387169063b0d8e18190610ef39087906004016115b7565b60206040518083038186803b158015610f0b57600080fd5b505afa158015610f1f573d6000803e3d6000fd5b505050506040513d601f19601f82011682018060405250810190610f439190611564565b10155b8015610d3a575060405163b0d8e18160e01b81526001600160a01b0386169063b0d8e18190610d939085906004016115b7565b60008083836001600160a01b0382161561102657610f9682610465565b158061101c575060405163b0d8e18160e01b81526001600160a01b0389169063b0d8e18190610fc99085906004016115b7565b60206040518083038186803b158015610fe157600080fd5b505afa158015610ff5573d6000803e3d6000fd5b505050506040513d601f19601f820116820180604052508101906110199190611564565b87115b1561102657600091505b6001600160a01b038116156110cd5761103e81610465565b15806110c4575060405163b0d8e18160e01b81526001600160a01b0389169063b0d8e181906110719084906004016115b7565b60206040518083038186803b15801561108957600080fd5b505afa15801561109d573d6000803e3d6000fd5b505050506040513d601f19601f820116820180604052508101906110c19190611564565b87105b156110cd575060005b6001600160a01b0382161580156110eb57506001600160a01b038116155b156111145760035461110990899089906001600160a01b0316611272565b935093505050611151565b6001600160a01b03821661112d576111098888836113ad565b6001600160a01b03811661114657611109888884611272565b611109888884611272565b94509492505050565b600080546001600160a01b038381166001600160a01b0319831681178455604051919092169283917f8be0079c531659141344cd1fd0a4f28419497f9722a3daafe3b4186f6b6457e09190a35050565b6001600160a01b0381166112005760405162461bcd60e51b815260206004820152601e60248201527f4163636f756e742063616e6e6f74206265207a65726f2061646472657373000060448201526064016103bd565b803b8061124f5760405162461bcd60e51b815260206004820181905260248201527f4163636f756e7420636f64652073697a652063616e6e6f74206265207a65726f60448201526064016103bd565b5050565b600061125f82846116f8565b9392505050565b600061125f82846116e0565b60035460009081906001600160a01b03848116911614801561130f575060405163b0d8e18160e01b81526001600160a01b0386169063b0d8e181906112bb9086906004016115b7565b60206040518083038186803b1580156112d357600080fd5b505afa1580156112e7573d6000803e3d6000fd5b505050506040513d601f19601f8201168201806040525081019061130b9190611564565b8410155b1561131f57506000905081610448565b6001600160a01b038084166000908152600760205260409020548491610100909104165b6001600160a01b03821615801590611364575061136287878484610d10565b155b156113a157506001600160a01b03908116600090815260076020526040808220546101009081900484168084529190922054909291900416611343565b90969095509350505050565b60045460009081906001600160a01b03848116911614801561144a575060405163b0d8e18160e01b81526001600160a01b0386169063b0d8e181906113f69086906004016115b7565b60206040518083038186803b15801561140e57600080fd5b505afa158015611422573d6000803e3d6000fd5b505050506040513d601f19601f820116820180604052508101906114469190611564565b8411155b1561145a57508190506000610448565b6001600160a01b038084166000908152600760205260409020600101548491165b6001600160a01b0382161580159061149c575061149a87878385610d10565b155b156114d757506001600160a01b039081166000908152600760205260408082206001908101548416808452919092209091015490911661147b565b969095509350505050565b80356001600160a01b03811681146114f957600080fd5b919050565b60006020828403121561150f578081fd5b61125f826114e2565b6000806000806080858703121561152d578283fd5b611536856114e2565b93506020850135925061154b604086016114e2565b9150611559606086016114e2565b905092959194509250565b600060208284031215611575578081fd5b5051919050565b600080600060608486031215611590578283fd5b833592506115a0602085016114e2565b91506115ae604085016114e2565b90509250925092565b6001600160a01b0391909116815260200190565b6000602080835283518082850152825b818110156115f7578581018301518582016040015282016115db565b818111156116085783604083870101525b50601f01601f1916929092016040019392505050565b60208082526023908201527f536f727465645661756c74733a204e494352206d75737420626520706f73697460408201526269766560e81b606082015260800190565b6020808252602a908201527f536f727465645661756c74733a204c69737420646f6573206e6f7420636f6e74604082015269185a5b881d1a19481a5960b21b606082015260800190565b6020808252818101527f4f776e61626c653a2063616c6c6572206973206e6f7420746865206f776e6572604082015260600190565b600082198211156116f3576116f361170f565b500190565b60008282101561170a5761170a61170f565b500390565b634e487b7160e01b600052601160045260246000fdfea26469706673582212209bbcb8ed9d6c842e30c4f87e7d5e763558fcb67ac3664b8eb9adc156229e534164736f6c63430008040033",
  "linkReferences": {},
  "deployedLinkReferences": {}
}